:020000040800F2
:10200000B00700209D210008A5210008C12D00086F
:1020100000000000000000000000000000000000C0
:10202000000000000000000000000000A9210008DE
:102030000000000000000000AB210008E9380008A3
:10204000AF21000800000000AF210008AF21000808
:10205000AF210008AF210008AF210008AF21000820
:1020600000000000AF210008AF210008AF210008E8
:10207000AF210008AF210008AF21000800000000D8
:10208000AF2100080000000000000000AF210008A0
:1020900000000000AF210008AF210008AF210008B8
:1020A000AF2100089D360008AF210008C13A0008A2
:1020B000AF21000800000000000000000000000048
:1020C00000F002F800F03EF80CA030C808382418E0
:1020D0002D18671EA246AB4654465D46AC4201D160
:1020E00000F030F87E460F3EB6460FCC0126334254
:1020F00000D0FB1A3343A246AB461847D824000051
:10210000F8240000103A02D378C878C1FAD85207F0
:1021100001D330C830C101D504680C60704700009D
:102120000023002400250026103A01D378C1FBD8F3
:10213000520700D330C100D50B6070471FB51FBDDB
:1021400010B510BD00F0B3F81146FFF7F7FF01F02E
:102150004BFD00F0CBF803B4FFF7F2FF03BC00F037
:10216000D1F8000070B505460C46164602E00FCCCB
:102170000FC5103E102EFAD2082E02D303CC03C591
:10218000083E042E07D301CC01C5361F03E0217899
:102190002970641C6D1C761EF9D270BD07488047FB
:1021A00007480047FEE7FEE7FEE7FEE7FEE7FEE73B
:1021B00004480549054A064B70470000193A0008D3
:1021C000C1200008B0010020B0070020B0030020AB
:1021D000B0030020F8B5042A2CD3830712D00B7863
:1021E000491C0370401C521E83070BD00B78491CFE
:1021F0000370401C521E830704D00B78491C0370E7
:10220000401C521E8B079B0F05D0C91ADF002023EC
:10221000DE1B08C90AE0FFF7A5FFF8BD1D4608C987
:10222000FD401C46B4402C4310C0121F042AF5D2B6
:10223000F308C91A521EF0D40B78491C0370401CD5
:10224000521EEAD40B78491C0370401C012AE4D4C6
:1022500009780170F8BDD2B210B513029A181304B0
:102260009A1800F00EF810BD01E004C0091F0429FF
:10227000FBD28B0701D50280801CC90700D00270F9
:10228000704700290BD0C30702D00270401C491EC2
:10229000022904D3830702D50280801C891EE3E74C
:1022A0000022EEE70022DFE770477047704775466F
:1022B00000F024F8AE46050069465346C008C00049
:1022C000854618B020B5FFF773FF60BCB646002600
:1022D0000027C0C5C0C5C0C5C0C5C0C5C0C5C0C534
:1022E000C0C5403D490849008D46704710B50446B9
:1022F000C046C0462046FFF72EFF10BD004870477D
:102300003000002001491820ABBEFEE72600020085
:102310007047000010B5012002053E490B6C1343C5
:102320000B6402020B6813430B6064220B685B05AD
:102330000ED4531E12041A46F8D19048CC21C16025
:102340000168090603D400BF01680906FBD510BD6A
:1023500089490A68D20703D00A68022313430B6035
:1023600064220B68DB070ED0531E12041A46F8D104
:102370008248CB21C16001680906E8D400BF01682A
:102380000906FBD5E3E74A6882434A60C2070B6847
:1023900013430B6064220B68002B0ED5531E1204EE
:1023A0001A46F8D17548CA21C16001680906CED421
:1023B00000BF01680906FBD5C9E70A46083A136859
:1023C000DB0702D01368034313600B6803430B6001
:1023D00064231468E4070ED15C1E1B042346F8D165
:1023E0006648C921C16001680906B0D400BF016810
:1023F0000906FBD5ABE7CA6870239A43CA60CA686E
:1024000077231343CB60800503490A6802430A60BF
:1024100010BDC0460010024008270140F0B589B049
:10242000544D2C78012C00D1A1E003920493089024
:10243000109805900F9A0E9C2078079064782B4690
:1024400015785778012086024B4A1662069018705C
:102450001668042030431060380245192002079B9B
:10246000C418642310460838006840070BD4581E6F
:102470001B060346F6D14148C822C2600268120614
:1024800008D400BFFAE7906B0870000A487000207B
:10249000384A10700878497809020818384B1988AA
:1024A000884200D91880374E3188884200D2308067
:1024B000354801884A1C02807D22D20091424DD1CC
:1024C0000194002102910180188807952F4D2988D9
:1024D000890008180527394601F060FF0446288066
:1024E00030882B4E318889000818394601F056FF94
:1024F0003080211A274A118003990870707848703B
:102500002878049908706878487010880799814283
:10251000059A02D21178FF290CD011780029184AA7
:10252000184B02990CD0019981420BD91A480078B6
:10253000810005E0184800788000C11C104A114B4A
:102540001548017014480078FF2801D0002801D1F7
:1025500008990870114818800020108008980178A8
:102560000F48FF2900D0103006998903016009B097
:10257000F0BDC04694000020082401401C380140F2
:102580009600002008000020900000200400002099
:102590000600002092000020A5010020FF0F00008F
:1025A00018040050F0B585B07D200490C500D849CE
:1025B0000868642800D0A6E0039500200860252262
:1025C000D44902928C5C262201928D5CD24A136817
:1025D00039229B0401D5034602E08B5C5B005B1C47
:1025E0008B54DBB21E46FF3E771E3246BA41009541
:1025F0002F0225463F19C94CA74200D201201043A3
:102600008A7AFF3A54425441044305D1FF2088722C
:1026100004988000C24A1080C2483A1A501E824173
:102620007042704110406437002801D03A0A00928D
:102630000026012B324600D0009A019C0A55002842
:1026400000D12F46012B039D00D03E4602980E5428
:10265000B54A10682B461833184204D00020887001
:10266000B24B186021E0B14803685B001C0E8C700F
:102670005B1C03607F2C18D1887C002815D1487B17
:10268000002812D1AA4843681B0C8B7443681B0AAC
:102690004B7443680B7403681B0CCB7303681B0AF1
:1026A0008B7300687F2303404B73106800051ED4B2
:1026B000C8787F2818D10A7E002A15D1CA7C002A42
:1026C00012D19B4A53681B0C0B7653681B0ACB75BF
:1026D00053688B7513681B0C4B7513681B0A0B75BD
:1026E00012687F231340CB744000401C00E00020A0
:1026F000C870904818380068C006C0170A795200A0
:10270000521C02400A718C480168A94200D0FDE0C9
:1027100000210391016003207A2100F033FE7D4DFA
:102720002846513029466D31029000F0CBFD804A99
:102730005068000C2E2168545068000A2D216854FE
:1027400050682C2168541068000C2B2168541068C4
:10275000000A2A21685410687F210191084029212C
:10276000685401225002754C20627548027020683E
:102770000423184320606427724E204608380168FD
:1027800049070AD4791E3F060F46F6D1C821F160E9
:10279000316809060AD400BFFAE7A16B2727E9557B
:1027A000090A2827E9550399654F397011022162FA
:1027B00063490A7021681943216064270168490749
:1027C0000ED4791E3F060F46F8D1C821F16031685A
:1027D0000906039F0BD400BF31680906FBD506E04C
:1027E000039F57490F70A16BE972090A29735104BD
:1027F000216253490A7021681943216064230168EA
:1028000049070AD4591E1B060B46F8D1C820F060B0
:102810003068000609D400BFFAE7A06B3521685480
:10282000000A36216854464807706220295C4842F5
:1028300048415C21695C2031C9B24029144600D36B
:102840003C4604433B4B3848FF21012C25D118302E
:102850003D4C26780024012E1DD1354E7668360C6D
:102860007327EE55324E7668360A7227EE55304E93
:1028700076687127EE552E4E3668360C7027EE5569
:102880002B4E3668360A6F27EE55294E36687F275D
:1028900037406E26AF55264603E0103B08300C4605
:1028A00016462F27EC55D4031C600260264806709C
:1028B00051202B565D202A5C07201040234C228893
:1028C000002E019F0AD0022808D16126AE5D3E404D
:1028D000372E03D3002B01D4002A06D0002B0AD5B3
:1028E000022808D0002A394605D1002000F04AFD10
:1028F00004984001208029466C313035029C2046E6
:102900002A4600F001FB204600F05AFB05B0F0BD5E
:10291000840100209C00002010080050B90B00002A
:1029200022010020FFFF000010000050A80100203D
:10293000002800402804005088010020082401409D
:10294000940000201C380140790100201000002074
:10295000F0B587B0DC480178012900D040E10027BC
:1029600007703C26DB4DDC4B3446009707E0F0183F
:102970003C380770641C761C822E00D130E1204662
:102980004B3805280CD8F0183C380078012807D1BE
:1029900030464B3801218140D04A107808431070EE
:1029A000CE4800783F2854D102944B20CC4B185C81
:1029B00005904D20185C04904C20185C039050202A
:1029C000195C4E20185C4F229A5C2F46CA25C04BDA
:1029D0009D6153259D611D688024019425431D60E0
:1029E0003D461F46120210180A0484180398400638
:1029F000400C04998906890A08187F21059A11401C
:102A000041186422D343386840060ED45B1CFAD3C5
:102A1000CE20E86028680006009FAF4B029C16D4C9
:102A200000BF28680006FBD511E0AE487860384644
:102A30000C380160384608380460386801998843CA
:102A40003860FE20B861BA61009FA34B029CA34886
:102A5000077030465138C0B2132809D8F1183C39F4
:102A60000978012904D19E49895D00F08BFC9A4BBD
:102A7000652E0AD12920185C012806D19848877450
:102A800047740774C77387734773662E0AD12A2069
:102A9000185C012806D192480776C7758775477577
:102AA0000775C7746B2E05D12F20185C012801D142
:102AB0008B488772FE20314605900140422913D190
:102AC000F2183C3A1278012A0ED142228448825CE4
:102AD0004323C35C1B029A187C4B9A427E4B03D261
:102AE00081480770814802802246673A012A11D83E
:102AF000F2183C3A1278012A0CD167227848825C9D
:102B00006823C35C1B029A18734B7948824201D830
:102B1000784802802246693A012A11D8F2183C3AD4
:102B20001278012A0CD16922F548825C6A23C35CC1
:102B30001B029A18654B9A42674B01D26E4802807D
:102B40003E2912D03C291ED1F2183C3A1278012AB3
:102B500009D13C22EA48825C3D23C35C1B029A18DF
:102B60005D4B664802803E290DD1F1183C39097849
:102B7000012908D13E21E248415C3F22825C1202D9
:102B800051185F4801804A2E00D0F0E6997B012958
:102B900000D0ECE64A21DA4A515C5E2900D0E6E634
:102BA0000126320457490B1F1C68E40303D500BFFC
:102BB0001C681442FBD10C68002C05D50C460C3C5B
:102BC000514D2560514D256030060D6805430D605F
:102BD000FB241C6006971D68154203D000BFFAE76E
:102BE00007B0F0BD0D6835430D60494D2F602D1DB8
:102BF0000695069D2F601D68154201D000BFFAE7BB
:102C00001D680746ED0707D1BE4D0598E8602868A6
:102C1000000603D400BFFAE71E6002E09D480225CB
:102C200005700868B0430860F0070D6805430D6043
:102C30001D68154201D000BFFAE70D68002D05D5CB
:102C40000D460C3D304E2E60304E2E600D683D43DB
:102C50000D601C601C68144201D000BFFAE70D68CB
:102C6000022425430D600D68F826B5430D600D68FC
:102C700060262E430E600D6815430D6000BF00BF37
:102C80001D681542FBD10A68A2430A600A68024324
:102C90000A602B209B49C8600868000601D400BF69
:102CA000FAE72E20C8600868000601D400BFFAE7E2
:102CB0000720000248490A68024048481018086086
:102CC000BFF34F8FFEE7C04624010020983A000072
:102CD0000C2800401C380140250100207B01002009
:102CE0009C000020F9007F0020000020220100202D
:102CF00087130000200100201E0100207201002027
:102D0000740100201420024023016745AB89EFCDF8
:102D10000070000810B51F4801682F220A430260A6
:102D200005210A07112090611B4810601B48906024
:102D30001B48D0600020506010625062194B08247C
:102D40009C61194C1C60194C9C60194CDC600F2470
:102D500024025C601862332464025C62154B986143
:102D60001A6098604907D960586018625862124921
:102D70000E228A6155220A608860C8604860086235
:102D800048620E49886108608860C86048600862CF
:102D9000486210BD34100240292005693C33003CD4
:102DA0002A011982000400507FA4A0500050FF00A7
:102DB0000008008000080050000C00500014005073
:102DC0000720000204490A680240044810180860FD
:102DD000BFF34F8F7047C0460CED00E00400FA05CA
:102DE00070B581B06B4600241C701B78092B07D886
:102DF00000BF009B5B1C6D462B702B780A2BF7D312
:102E0000D04B59622249084001210D044019186035
:102E100048031D6805431D60CB4804605D69ED07EC
:102E200007D15D69ED0616D4056895421CD800BF30
:102E3000F4E70925AD021E682E431E600460890375
:102E40005C69640704D40468944216D800BFF7E7AD
:102E5000186A196018E0BD480422027088031968D6
:102E600001431960FE200FE0B84803220270880376
:102E7000196801431960FE2006E0B448032202707D
:102E8000186808431860FE20C0B201B070BDC0468B
:102E9000FF0300006B010020184801683122184B25
:102EA00099540168090A322299544188332299546D
:102EB000C1783422995401680A0E1248C26002682F
:102EC000120601D400BFFAE70A0CD2B2C26002684F
:102ED000120601D400BFFAE70A0AD2B2C260026841
:102EE000120601D400BFFAE7C9B2C1600168090641
:102EF00003D400BF01680906FBD5704700680008CD
:102F00009C0000201C380140F0B581B0294B1E7890
:102F1000294C0027002E009201D03B4602E0237886
:102F20005B005B1C2246057C7F242C40282C00D3B0
:102F30003B460D781370214A002E03D03946AC422F
:102F400005D205E011784900491CAC4200D339464E
:102F5000002C00D121461170D9B2FF394B424B41B0
:102F6000817B60240C40344361426141754275416C
:102F7000447A1D4201D1002905D00920642115465B
:102F800000F000FA2A460B480078012808D12020DA
:102F9000044005D009204421144600F0F3F92246EC
:102FA0001078FF2801D001B0F0BD01200099087011
:102FB00001B0F0BD79010020990000209A000020A6
:102FC000F0B586B002797F210A40037C0B405C4853
:102FD0000188382B23D8082A00D1ABE0002900D083
:102FE000A8E001AA08215170042111706B4600224B
:102FF0001A701B78092B07D800BF009B5B1C6C461E
:10300000237023780A2BF7D3AB4BAC4C1C60012404
:1030100065031E682E431E60A94D164628E03A2B14
:1030200035D8102A00D185E0002900D082E003AA1B
:10303000102151700421117002AB00221A701B780C
:10304000092B07D800BF029B5B1C02AC23702378BE
:103050000A2BF7D3984B994C1C60012465031E681A
:103060002E431E60964D164636E0761C022E63D027
:1030700001AFBF5D5F622A605F69FF07F5D15F69DD
:10308000FF064AD42F68052F4AD200BFF4E7202A52
:1030900050D000294ED105AA202151700421117071
:1030A00004AB00221A701B78092B07D800BF049BC1
:1030B0005B1C04AC237023780A2BF7D3ED4BEE4C4A
:1030C0001C60012465031E682E431E60EB4D1646EE
:1030D00014E0761C022E2FD003AFBF5D5F622A6022
:1030E0005F69FF07F5D15F69FF0616D42F68052FCA
:1030F00016D200BFF4E7761C022E1DD005AFBF5DCF
:103100005F622A605F69FF07F5D15F69FF0604D43B
:103110002F68052F04D200BFF4E7D94A117002E0EE
:10312000D74903220A70A1031A680A431A607D2155
:103130004901018006B0F0BDA1031960F7E7C04660
:103140000A000020045800406C0100206B010020A0
:10315000F0B587B002A8FD2141700221017001A8DD
:10316000002606700078092807D800BF0198401C87
:1031700001A9087008780A28F7D3BE48BE49016043
:1031800001256C03016821430160A9030091BB4A3A
:10319000374603E07F1C022F00D185E002ABDB5DE8
:1031A000436216604369DB07F4D14369DB0604D44C
:1031B0001368052B04D200BFF4E7B14B042601E0ED
:1031C000AF4B03261E70036800990B43036004ABEA
:1031D00020265E7004261E7003AF00233B703F78EC
:1031E000092F07D800BF039F7F1C03A90F70097820
:1031F0000A29F7D3A04901600768274307601F46E3
:1032000002E07F1C022F52D004A9C95D4162136005
:103210004169C907F5D14169C90604D41168052976
:1032200004D200BFF4E796490E7002E094490323EC
:103230000B700168009B1943016006A9E6234B70DF
:103240000D7005A900250D700978092907D800BF60
:103250000599491C05AB197019780A29F7D38649D5
:1032600001600168214301602B4602E05B1C022BD8
:103270001FD006A9C95C416215604169C907F5D133
:103280004169C90604D41168052904D200BFF4E7D6
:103290007B490E7002E07A4903220A700168009AA5
:1032A0001143016007B0F0BD009901608FE70099FC
:1032B000C2E70099F5E7C04604580040D400020078
:1032C0006C010020F0B587B00C4605460026F1B22F
:1032D000D4200422FFF784FD01A98855761C152E01
:1032E000F5D1674E3078C01E022807D2E348E221AC
:1032F000C160016809060FD400BFFAE701A91522D1
:103300002846FEF767FFA87B7F2101402078814295
:1033100030D9D84801212FE01948026801218A4399
:10332000026002682E239A4302600A06554B1A6017
:10333000BFF34F8FBFF36F8F8B05534A14689C43C5
:1033400014606D4600242C702D78092D07D800BF1D
:10335000009D6D1C6F463D703D780A2DF7D31568B2
:103360001D431560494A02610160FFF7F1FE3470A8
:1033700007B0F0BDBF480021017007B0F0BDC046E6
:1033800000580040F0B583B002AA5170107001A837
:10339000002202700078092807D800BF0198401C5D
:1033A00001A9087008780A28F7D332483249016029
:1033B00001214B0304681C430460304B144602E0B7
:1033C000641C022C53D002AD2D5D45621A60456924
:1033D000ED07F5D14569ED0604D41D68052D04D22D
:1033E00000BFF4E7264A042301E0254A03231370B3
:1033F0008A03036813430360214A1278D21E012A0C
:1034000033D89E4AE123D36013681B0601D400BF62
:10341000FAE7021F13688B43136013682E25AB4332
:1034200013600B06174D2B60BFF34F8FBFF36F8FE9
:103430008E05154B1D68B5431D606F4600253D7018
:103440003F78092F07D800BF009F7F1C6C4627706C
:1034500024780A2CF7D31F6837431F600B4BC360D7
:103460001160FFF775FE0648057003B0F0BD8A03D2
:103470000260C1E704580040D40002006C01002043
:103480006B01002080E100E03C1002402B1D200079
:10349000B0B5734A1378002B42D0012B62D1714929
:1034A00001230B707A490C787A4B1D68AD0604D560
:1034B000002C02D16D4C754D25601B689B06DB0FFF
:1034C0000B70714909684B424B4168490C68654271
:1034D00065411D43664B1B78FF3B5C425C412C43BE
:1034E000012C00D0BBE04923F64CE35C1B064825C9
:1034F000655D2D04EB184725655D2D025B1946259A
:10350000645D1B195C4C23605D4B08241C605B4BA5
:10351000FF24DC601C68240600D582E000BFF9E7C8
:1035200050480023037051480368002B03D14E4BD1
:103530001B78012B0ED0504B1B68002B00D08EE067
:103540004C4B1B78012B00D089E0494B1B78002B9A
:1035500000D084E0494BEF24DC601C6824062AD4A8
:1035600000BFFAE74549DF23CB600B681B0601D497
:1035700000BFFAE7DE23CB600B681B0601D400BF57
:10358000FAE73F4908230B603E494B681B0C437127
:103590004B681B0A03714B68C3700B681B0C83706C
:1035A0000B681B0A437009687F230B4003702F4888
:1035B0003949016051E0EE24DC601C68240601D426
:1035C00000BFFAE72E4B103B08241C602D4B5C68B3
:1035D000240C4C715C68240A0C715C68CC701C680B
:1035E000240C8C701C68240A4C701B687F241C40BF
:1035F0000C70B749B74B0B60244901604920B149B1
:10360000085C00064823CB5C1B0418184723CB5CDE
:103610001B02C0184623C95C4018FC490860012001
:103620001CE0FE24DC601C68240601D400BFFAE71D
:10363000144B5C68240C44715C68240A04715C6857
:10364000C4701C68240C84701C68240A44701B68B5
:103650007F241C4004701048086000201070B0BD2A
:103660002800002012000020790100200C0000201A
:103670009A0000209B000020240000201C380140FC
:1036800028040050002800401C000020C0D4010085
:103690007A01002010000050204E000080B500F09C
:1036A00001F880BDF0B581B07E48011F0968C907E7
:1036B00001D101B0F0BD02687B4E3378052B25D8CF
:1036C000D1B2C0467B441B795B009F44022536463D
:1036D0006FAC784B00221A70784B1A70804B1A70BE
:1036E0007D4B1A707D4B1A70734B1A706F4B1970AB
:1036F0007C4B1A70AB2900D0C6E001213170DE216D
:10370000017018784840187001B0F0BD68490A7817
:10371000521C0A70FE21B2E0644A13784B401370C9
:10372000CD2900D0A6E0FA210170022030706D484A
:1037300002784A40027001B0F0BD604B19705B4CDA
:1037400025784D402570FE242240812A00D995E03D
:10375000017003203070187822E07F220A40604B0D
:103760001A70554B1A70CB09524C23704F4B1C7872
:103770004C401C70163A1521C9438A427ED94F49E4
:103780000A785308402B79D8544B1C78A2189A4CCD
:10379000A25C027004203070087819780818205C48
:1037A00050490A7842400A7001B0F0BD4A4A11708F
:1037B0003E4A13784B401370404A1478474B1D78AB
:1037C0002C193C2C07D3812C05D83A4F3F78012F78
:1037D00001D13D4F7955832C07D335490C78641CB2
:1037E0000C70EE210170002131703D490C78641E8F
:1037F0000C701D786D1C1D701778EDB27D19812D30
:103800000CD824060AD07C4C655D057012781B78B4
:103810009A18A25C334B1C7854401C70097800291C
:103820003BD004202DE0214A12788A4222D121483F
:103830000078012815D120480478002C11D01F48A9
:1038400007781F4838183C38012521462A46FEF7DC
:1038500002FD6948C0191C492246FEF7BBFC1B4803
:10386000057013480021017065481A4A02603170E2
:1038700001B0F0BD0E490A78521C0A70EE210170A9
:103880000020307001B0F0BD09490B785B1C0B7053
:10389000EE210170327001B0F0BD1249097801705B
:1038A0000520EEE70C3001407E0100207001002071
:1038B00076010020800100208C0100207C01002086
:1038C000250100209C000020900100202401002000
:1038D0001C000020A0BB0D007F01002098000020EC
:1038E0007D0100207801002010B584B000F008F9B7
:1038F0003B480168491C02D00168491C01607D20D9
:10390000C100384802688A4202D00168491C01603F
:1039100035480168642902D00168491C01603348B8
:103920000188002922D0491E0180314801884A1EA1
:10393000028000290AD12F4901220A7069212E4AEA
:10394000515C2E4A11800021C94301802B490A880D
:10395000531E0B80002A0CD1264A002313706722C5
:10396000254CA25C0280D843088002E02148012156
:10397000017023480168002900D0491E01602148D8
:103980000168002900D0491E016020480168002913
:1039900005D01D4A1278002A01D1491E016000F0AD
:1039A000C3FB1B480188002900D0491E018019482B
:1039B0000188002900D0491E01800F4A10462F308F
:1039C0001146743113467633009301910290501DD5
:1039D00011463731931D0832FEF720FD04B010BDAB
:1039E0006C010020880100208401002022010020B9
:1039F00020010020200000209C0000201E0100204B
:103A00001C0000200C0000201200002024000020D8
:103A1000100000200A000020B0B5224D2C1F2068A5
:103A20008006400F411E032922D81F487944097996
:103A300049008F442801171A296803220A40032AE3
:103A400000D01A4829684906490F491C00F0A6FC15
:103A500029684904490E48432968490F491C00F068
:103A60009DFC10E07D2000020DE00120C0030AE073
:103A70000120C0020C3D29680143296028688004A8
:103A8000410F0A48C8400A490860226892093C234D
:103A90001340084AD258D0400860074807490160DF
:103AA000B0BDC0460C10024000127A000024F400A1
:103AB000000000209445000808ED00E00020000808
:103AC0000C480168890608D40120C0060B4908602B
:103AD000BFF34F8FBFF36F8F70478068C0B253281A
:103AE00003D105480121017070470348002101708E
:103AF0007047C0461C380140AC01002080E100E066
:103B0000F0B534480188002901D04D1E01E07D2127
:103B10008D000580304A1388304F3988304C002999
:103B200015D0002B13D0AEB2002E06D0FA2E0ED137
:103B30003A4626461036274603E03A4627461037CF
:103B4000264608203860042030601746224A0029A3
:103B50000ED0002B0CD1AEB2002E03D0FA2E07D11E
:103B6000264601E0264610360820306004202060FA
:103B700000290ED1002B0CD0ADB2002D03D0FA2DB0
:103B800007D1254601E02546103508202060042095
:103B900028600846184303D10820206004202060D4
:103BA000002B01D11E4600E05E1E0020C4430D4DD7
:103BB000AB42234600D033461380002903D10A4686
:103BC000A94204D002E04A1EA94200D014463C801B
:103BD000F0BDC046140000207401002072010020D6
:103BE000180C0050FFFF00008CB062B6FFF792F88F
:103BF000D9480168012291431346016001682E22D1
:103C000091430160D549481C0E46D5490090086093
:103C1000BFF34F8FBFF36F8F98051A460990D149B4
:103C20000B6883430B604923CF4F0020F85448238F
:103C3000A424FC544723CB24FC5446238024FC5466
:103C4000CA4BCB4C1C60CB4BCB4C1C60CB4BCC4CF5
:103C50001C60CC4BCC4C5C60CC4C256835400326BA
:103C6000B607AD1925600690986007241C601646BB
:103C7000900305904B6803434B60C5480368B74AFF
:103C800013400360F206C3480260C34D2A46103A4F
:103C90004520029010602A461C3A13682C241C43CD
:103CA00014601368334313600C460A680998024392
:103CB0000A60FB49FB4801610660310360680891B6
:103CC00008436060FC4A1068FD49084005994018A7
:103CD000106070060790F94908605D208001F9497D
:103CE0000490486008683043086009208201086831
:103CF0000392104308603007224621680143216087
:103D0000B002216801432160606A304360627D2017
:103D10000190800009963402E449496A89070AD46F
:103D2000411E00040846F7D1CF20E860286800064D
:103D30000BD400BFFAE7E448016821430160412049
:103D40004002DA4A116A01431162FEF7E3FADF49E1
:103D5000DF480860DF48086009984860F4348C60E8
:103D6000C868002801D000BFFAE7DB480860DB48DC
:103D7000099C0460FFF7ECF977203C547620F4218D
:103D8000395475203C54742039546A20069E3E54A0
:103D90006920029A3A5468203E54672060213954C1
:103DA0007E7022203870CE480180CE480280FFF716
:103DB00073F86C202B2139546D2037213954AC20F5
:103DC000E860C948067001980001C8490880C849E0
:103DD00008802868000601D400BFFAE7C5480168DA
:103DE0000A0EEA602A68120601D400BFFAE70A0C3C
:103DF000D2B2EA602A68120601D400BFFAE70A0AC2
:103E0000D2B2EA602A68120601D400BFFAE7C9B24A
:103E1000E9602968090601D400BFFAE70168491C76
:103E2000B54918D0BB22EA602A68120601D400BF47
:103E3000FAE7DD22EA602A68120601D400BFFAE739
:103E400008220A61AD49069A0A70AD490A70AD4967
:103E5000974A11605EE0CC22EA602A68120601D41B
:103E600000BFFAE7EE22EA602A68120601D400BF1A
:103E7000FAE708220A608E498E4A0A60A0490C704F
:103E80009E490C700168002944D022049E490B68A9
:103E9000DB0303D500BF0B681342FBD14B68002B3B
:103EA00005D50B46083B994C1C60994C1C604B682F
:103EB000009C23434B60FB230B6000230B930C6897
:103EC000144201D000BFFAE74C68099E34434C60AD
:103ED000044608C40B940B9C23600B68134201D06A
:103EE00000BFFAE70A68D20706D1FE22EA602A6814
:103EF000120604D400BFFAE7099B0B6003E0854A71
:103F000002231370099B4A689A434A60DA074B6898
:103F100013434B600068010EE9602968090601D46B
:103F200000BFFAE7010CC9B2E9602968090601D4AB
:103F300000BFFAE7010AC9B2E9602968090601D49D
:103F400000BFFAE7C0B2E8602868000601D400BFED
:103F5000FAE7724C734E24E000580040FFFFFF0068
:103F600080E100E03C1002409C0000200C0000209A
:103F7000C0D401001C000020A0BB0D0024000020C4
:103F800080CBA40010E000E03F1F000020ED00E027
:103F900018E400E000E100E01C380140002030702F
:103FA00030BF2078022855D3464A10684021884304
:103FB00010603E494868584B184048603A48079A94
:103FC0000260BFF34F8FBFF36F8F08460C38016854
:103FD000089A1143016001681940016000200A90AD
:103FE0000A99C72906DC00BF0A99491C0A910A9957
:103FF000C829F8DB2D4A5168089B194351602E4BA4
:1040000019682F4A1140059A114319602B49079AE4
:104010000A6004992B4B59601968099A1143196079
:104020001968039A11431960E121E960207028683A
:10403000000601D400BFFAE7E220E8602868000625
:1040400001D400BFFAE7E320E8602868000601D445
:1040500000BFFAE7FEF77CFCFEF7A4FA30480078D0
:10406000002801D01D4801E01C4810380999016062
:1040700038461F3039461931FFF70AFA13481649F6
:104080000160307801288BD1069802E0401C82281C
:1040900084D0395CE96029680906F7D400BFFAE7E3
:1040A0002B1D20000058004080E100E03C10024041
:1040B0000C000020C0D4010018E400E000E100E0A2
:1040C000FF00FFFF00300140007000400030004062
:1040D000CCCC000055550000AAAA0000280C0050C6
:1040E000200100201E0100209A0000207201002003
:1040F0007401002000600008180400501200002025
:1041000028000020204E00001020024023016745B7
:10411000AB89EFCD6B010020FFEFFFFF76010020A0
:1041200020000020AC010020F0B583B08F4801785A
:10413000092900D917E1C0467944097949008F441B
:10414000040B121C222C323C4B5C8949096849063D
:1041500000D508E101214DE085490968490600D4F0
:1041600001E102212EE082490968490641D58A49C8
:104170000A68002A4AD1032237E07D4909684906C6
:1041800025D404211EE07A490968490631D48249C0
:104190000A68002A3AD1052227E0754909684906CC
:1041A00015D506210EE072490968490621D57A49DC
:1041B0000A68002A2AD1072217E06D4909684906D2
:1041C00005D4082101707D20000173491FE0724968
:1041D0000A68002A1AD10CE065490968490608D422
:1041E0006D490A68002A11D1092202707D20400120
:1041F0000DE00021017003B0F0BD5D49096849067A
:1042000008D465490A68002A00D1A7E0501E08605A
:1042100003B0F0BD574CF120E0602068000601D4E7
:1042200000BFFAE7F220E0602068000601D400BF7A
:10423000FAE7F320E0602068000601D400BFFAE747
:10424000012631044C48021F1368DB0303D500BF6D
:1042500013680B42FBD10368002B05D503460C3BCA
:10426000464D1D60464D1D603506036800952B4385
:104270000360FB2717600023029315680D4201D0ED
:1042800000BFFAE70568354305603E4D2B602D1DE4
:104290000295029D2B6015680D4201D000BFFAE720
:1042A0001568ED0706D1FE25E56025682D0603D4C7
:1042B00000BFFAE7166002E0334C0225257004685F
:1042C000B4430460F40705682543056015680D4292
:1042D00001D000BFFAE70568002D05D505460C3D65
:1042E000264E2E60264E2E600568009E35430560E2
:1042F000176015680D4201D000BFFAE70668022575
:104300002E4306600668F827BE43066006686027ED
:104310003743076006680E43066000BF00BF16689B
:104320000E42FBD10168A94301600168214301608D
:10433000019316480199814204DA00BF0199491C92
:104340000191F7E7124801687D221201D03A0A4034
:10435000104951180160BFF34F8FFEE70022027031
:104360007D200001086003B0F0BDC0467701002049
:10437000100800501C3801401420024023016745FA
:10438000AB89EFCD007000086B010020204E0000CB
:104390000CED00E00400FA051800002043088B42F1
:1043A0001AD3002203098B4279D3030A8B425ED3CE
:1043B000030B8B4242D3030C8B4227D30902FF220B
:1043C00012BA030C8B4202D31212090203D0030B60
:1043D0008B4233D31AE0D3E0411A8041401C70472E
:1043E00003460B4371D443088B42F5D300220309E3
:1043F0008B4254D3030A8B4239D3030B8B421DD318
:10440000030C8B4202D394466EE0090AC30B8B4225
:1044100001D3CB03C01A5241830B8B4201D38B03D0
:10442000C01A5241430B8B4201D34B03C01A524175
:10443000030B8B4201D30B03C01A5241C30A8B42B8
:1044400001D3CB02C01A5241830A8B4201D38B02A3
:10445000C01A5241430A8B4201D34B02C01A524147
:10446000030A8B4201D30B02C01A5241CDD2C309B9
:104470008B4201D3CB01C01A524183098B4201D335
:104480008B01C01A524143098B4201D34B01C01A20
:10449000524103098B4201D30B01C01A5241C30898
:1044A0008B4201D3CB00C01A524183088B4201D307
:1044B0008B00C01A524143088B4201D34B00C01AF3
:1044C0005241411A524110007047CA0F00D0494270
:1044D000031000D34042534000229C4603098B4204
:1044E0002DD3030A8B4212D38901FC2212BA030A8C
:1044F0008B420CD3890192118B4208D3890192110E
:104500008B4204D3890137D0921100E08909C30995
:104510008B4201D3CB01C01A524183098B4201D394
:104520008B01C01A524143098B4201D34B01C01A7F
:10453000524103098B4201D30B01C01A5241C308F7
:104540008B4201D3CB00C01A524183088B4201D366
:104550008B00C01A5241D9D243088B4201D34B0081
:10456000C01A5241411A00D20146524110466346D8
:104570005B1000D34042704763465B1000D340425B
:1045800001B50021004201D0C9430846C046C046DB
:1045900002BD00000000000000000000000000005C
:1045A000000000000000000000000000000000000B
:1045B00000000000010000000200000003000000F5
:1045C00004000000060000000700000008000000D2
:1045D00009000000F845000800000020300000003D
:1045E0000421000828460008300000208007000051
:1045F00020210008000000000024F40040074007CC
:10460000FF0FA00FC0D40100A00F0100F4010000B3
:10461000D0070000A0BB0D000100000080CBA4006B
:08462000010000000000000091
:04000005080020C10E
:00000001FF
