:020000040800F2
:10250000200700209D260008A5260008A726000811
:1025100000000000000000000000000000000000BB
:10252000000000000000000000000000A9260008D4
:102530000000000000000000AB26000889340008FD
:10254000AF26000800000000AF260008AF260008F4
:10255000AF260008AF260008AF2600089D2C000813
:1025600000000000AF260008AF260008AF260008D4
:10257000AF260008AF260008AF26000800000000C4
:10258000C93600080000000000000000F93500080E
:1025900000000000AF260008AF260008AF260008A4
:1025A000AF260008AF260008AF260008C137000894
:1025B0003D3800080000000000000000000000009E
:1025C00000F002F800F03EF80CA030C808382418DB
:1025D0002D18671EA246AB4654465D46AC4201D15B
:1025E00000F030F87E460F3EB6460FCC012633424F
:1025F00000D0FB1A3343A246AB461847F01900003F
:10260000101A0000103A02D378C878C1FAD85207DD
:1026100001D330C830C101D504680C607047000098
:102620000023002400250026103A01D378C1FBD8EE
:10263000520700D330C100D50B6070471FB51FBDD6
:1026400010B510BD00F08AF81146FFF7F7FF01F052
:102650002FF900F0A2F803B4FFF7F2FF03BC00F07B
:10266000A9F8000070B505460C46164602E00FCCEE
:102670000FC5103E102EFAD2082E02D303CC03C58C
:10268000083E042E07D301CC01C5361F03E0217894
:102690002970641C6D1C761EF9D270BD07488047F6
:1026A00007480047FEE7FEE7FEE7FEE7FEE7FEE736
:1026B00004480549054A064B70470000513500089B
:1026C000C125000820010020200700202003002051
:1026D00020030020F8B5042A2CD3830712D00B78EE
:1026E000491C0370401C521E83070BD00B78491CF9
:1026F0000370401C521E830704D00B78491C0370E2
:10270000401C521E8B079B0F05D0C91ADF002023E7
:10271000DE1B08C90AE0FFF7A5FFF8BD1D4608C982
:10272000FD401C46B4402C4310C0121F042AF5D2B1
:10273000F308C91A521EF0D40B78491C0370401CD0
:10274000521EEAD40B78491C0370401C012AE4D4C1
:1027500009780170F8BD704770477047754600F002
:1027600025F8AE46050069465346C008C0008546B8
:1027700018B020B5FFF79CFF60BCB64600260027C6
:10278000C0C5C0C5C0C5C0C5C0C5C0C5C0C5C0C521
:10279000403D490849008D46704710B50446C04683
:1027A000C0462046FFF757FF10BD000000487047A5
:1027B0003000002001491820ABBEFEE726000200D1
:1027C0007047000070B500200721D24A535C5C1EA0
:1027D000A3414000C018491E4B1CF7D300210C2315
:1027E000D418641E2478651EAC41490009195B1E8B
:1027F000082BF5D80023112415196D1E2D786E1E97
:10280000B5415B061B0E5B19641E0C2CF4D8527C80
:10281000002A0BD0154A1278112A07D1124A1478CF
:10282000002C03D101241470603B01E05F221340AF
:102830000F4A53711071D170B84801790901D172F2
:102840000C4B19787F2901D3702100E0491C1970C5
:10285000437804782401E3185372C3788078000128
:10286000C0189072517370BD9000002017010020B5
:102870000000002011000020F0B581B09B4900202D
:1028800008709B4DE97CBA2909D1297D2D2906D1F3
:10289000697D2A2903D1A97D23394842484100286E
:1028A00051D094480021017093480127077068783F
:1028B000924A1070A8785070E878907090486A7AC0
:1028C000FF267240CA403A40534253414354491C88
:1028D0000829F4D108212A7A72400B46083BDA40D5
:1028E0003A40534253414354491C0C29F3D1002030
:1028F00084492A7AF0235340C34010221A40120917
:102900000A54401C0428F4D17F480078002801D0E4
:1029100000F074FD7E480078012848D07B4800789C
:10292000012844D000227B48134603E0C4545B1CBA
:10293000082B0FD0EC7AFF214C40DC40E407144612
:10294000F4D0C45CF2E70F2000F094FF00F0F6F83A
:1029500001B0F0BD082204E0835C8354521C0C2AB1
:1029600008D0AB7A4B401446083CE340DB07F3D178
:102970000023F2E70C2204E0835C8354521C112AEA
:1029800008D06B7B4B4014460C3CE340DB07F3D193
:102990000023F2E760485F4C12222146FFF79AFEBF
:1029A000204600F05BFD5948077000F01FFD002035
:1029B0005A4C014603E06254491C052907D02A7B82
:1029C0007240CA40D2070246F5D0625CF3E7E8796C
:1029D0000007C00F524B1870E87B00090E2823D95E
:1029E000A87C012820D14F480178491C0170C8B249
:1029F00004281CD300F0E8F94B480022134600F0ED
:102A0000BBF900F0AFF9012000F034FF444B464819
:102A1000006800280BD1BFF34F8F4648464901603C
:102A2000BFF34F8F00BFFDE73E48002101703F48D4
:102A30000178EA7B12090F2A12D3002910D10770FE
:102A400028790009207028790F2108406070687982
:102A50000009A07068790840E070A8790009207129
:102A60001878012818D1E87B00090F2814D33048C2
:102A70000178002900D06BE707700021264803E0A9
:102A80004254491C08290BD02A7C7240CA40D20704
:102A90003246F5D0425CF3E72548077001B0F0BD3F
:102AA000082103E04254491C0C2909D0EB7BFF228A
:102AB00053400E46083EF340DB07F3D0425CF1E79B
:102AC0000C2104E04254491C112900D140E762184E
:102AD0000C3A1278002AF6D00B460C3B6E7CFF2293
:102AE0005640DE40F307EDD0425CEBE7910000205A
:102AF000ED00002092000020A2000020190000201C
:102B00001C0000209C0000209A000020CC00002027
:102B100097000020A4000020D0000020C700002063
:102B200018000020A300002000F800080E0100207B
:102B30001D0100200CED00E00400FA05B0B50521F0
:102B40000C070122204600F0C5F92021204600F0A4
:102B5000BFF93F4D284600BF401EFCD1052103228E
:102B6000204600F0B7F900BF6D1EFCD1B0BDC046D5
:102B7000B0B50520040701204102204600F0A8F965
:102B80001F4800BF401EFCD105210122204600F055
:102B9000A1F92021204600F09BF92D4D284600BFC9
:102BA000401EFCD105210322204600F093F900BF0E
:102BB0006D1EFCD1B0BDC046B0B505200407012094
:102BC0004102204600F082F90D4800BF401EFCD1B2
:102BD00005210122204600F07DF92021204600F049
:102BE00077F91B4D284600BF401EFCD1052103226A
:102BF000204600F06FF900BF6D1EFCD1B0BDC0468D
:102C000090B20800B0B501218902052214070028FE
:102C100003D0204600F05CF902E0204600F056F9AF
:102C200005210122204600F055F92021204600F020
:102C30004FF9074D284600BF401EFCD10521032255
:102C4000204600F047F900BF6D1EFCD1B0BDC04664
:102C500030E6020070B578204F21002200F082F9A2
:102C60000224204600F006FE8C4D202628463146E0
:102C700000F02CF9204600F0FDFD2846314600F01A
:102C800027F9204600F0F6FD70BDC04680B5FFF77D
:102C9000E1FF00F097FB00F083FB80BDB0B52C4D49
:102CA0002868401C286028682A4C012803D12C4839
:102CB00001F022F845E02868022814D101F032F82A
:102CC0002548026825490A600A685523DB009A42B4
:102CD0002CD90968224A914228D20021016020485B
:102CE00001F00AF82DE02868032822D101F01AF833
:102CF00019480168194801605521C90002688A42D3
:102D00001DD901681648814219D2C23000F0DCFF9B
:102D10002068102188432060884880210160BFF32B
:102D20004F8FBFF36F8F002028600AE000202860DB
:102D300007E02868042804D30020286001E0002070
:102D400028602046743810210160703C2160B0BDBD
:102D5000E80000208018024024040040E400002025
:102D6000740400000120C00702490A6802430A6097
:102D70007047C0461420024070B582B00021019116
:102D8000012421041D4D2E68F60303D500BF2E68D3
:102D90000E42FBD16E6826436E6004C0019001981C
:102DA00003602868084201D000BFFAE72868C0071E
:102DB00003D1FE2000F052FD00E02C606868A043C3
:102DC000686002B070BDC04601210C480268D203A1
:102DD00004D50A0400BF03681342FBD14268002AED
:102DE00005D50246083A064B1360064B13600906E8
:102DF00042680A434260FB21016070471020024094
:102E000023016745AB89EFCD204801682F220A4393
:102E1000026005200107222088611D4808601D48C6
:102E200088601D48C8600020486081225201134616
:102E3000E0330B62486219498A61194A0A60194AEB
:102E40008A60194ACA60032212024A600862662236
:102E50004A6216498861164A0A608860154ACA6043
:102E60004860086248621449886155220A60886097
:102E7000AA22CA60486008624862104988610860F6
:102E80008860C86048600862486270473410024039
:102E9000A44455695003003C008082820004005025
:102EA00055A55A5500500F03AA02A0A800080050CB
:102EB0000050005400A000A8000C00500014005066
:102EC00000690840411A4842484170478162704792
:102ED0008161704710B5002A0CD0032A11D0012A55
:102EE00015D14900012213468B4004681C4304603D
:102EF000491C01E0490003228A40016891430160B6
:102F000010BD490003228A4001681143016010BDD1
:102F10001248016801229143016001682E23994300
:102F20000160D00505490860BFF34F8FBFF36F8F75
:102F3000500509490A6882430A60704780E100E051
:102F400001204105044A13680B4313600349044AF6
:102F50000A6108607047C0463C10024000540040BF
:102F60002B1D2000B0B582B001AB5A7019706A46B3
:102F7000002111701278092A07D800BF009A521C4C
:102F80006B461A701A780A2AF7D3164A10400122A3
:102F90005304C31814480360530304681C430460BB
:102FA000174B0C4602E0641C022C14D001AD2D5DC1
:102FB000456219604569ED07F5D14569ED0604D410
:102FC0001D68022D04D200BFF4E70849042301E084
:102FD000064903230B70910302680A43026002B0A2
:102FE000B0BDC046FF03000004540040EC000020C8
:102FF00003480168491C02D00168491C0160704700
:1030000010010020F0B581B0002912D00C46054611
:1030100063260021FF2730463A4600F04FF8284645
:1030200000F028FC012130463A4600F047F8641EC3
:10303000EED101B0F0BD00003F2803D840B202A19C
:10304000085C7047FF207047040802380E09030A25
:103050000F0B111534121610391E00011F202122EA
:1030600028292A2B2C3A0CFFFFFFFF050DFFFFFF3D
:10307000FF063635073714FFFFFFFFFFFF13FF3B47
:10308000FFFFFFFFFFFFFF330A48017800201129EF
:103090000DD8094A525C012A09D108460C38042887
:1030A00006D8BE4808180C380078411E8841704781
:1030B00001207047170100201C000020F0B583B0EC
:1030C00006461B283DD81546782402910027012288
:1030D00020463946FFF746FF701DC1B220460195D4
:1030E0002A46FFF73FFF2525204629463A46FFF7A7
:1030F00039FF30462A30C1B22046029AFFF732FF2C
:10310000204629463A46029FFFF72CFF142E26D16F
:1031100078241E212046019AFFF724FF252500264A
:10312000204629463246FFF71DFF432120463A46F6
:10313000FFF718FF204629463246FFF713FF03B07A
:10314000F0BD632E0BD105200007012904D1022117
:10315000FFF7BEFE03B0F0BD0221FFF7B7FE03B0DC
:10316000F0BD10B50A46401DC1B278242046FFF7D5
:10317000F9FE252100222046FFF7F4FE10BD0000D5
:1031800070B504460025BE4E705D2146FFF7E9FF8D
:103190006D1C162DF8D170BD70B50024B84D285D9A
:1031A0000121FF22FFF78AFF641C042CF7D11420B1
:1031B00000F060FB0026A85D0024FF222146FFF7F7
:1031C0007DFF761C042EF6D1281900790121FF22FB
:1031D000FFF774FF641C042CF6D1142000F04AFBA6
:1031E0000024281900790021FF22FFF767FF641CE3
:1031F000042CF6D10824285D0121FF22FFF75EFF91
:10320000641C0C2CF7D1142000F034FB0824285D3A
:103210000021FF22FFF752FF641C0C2CF7D10C2475
:10322000285D0121FF22FFF749FF641C112CF7D113
:10323000142000F01FFB0C24285D0021FF22FFF763
:103240003DFF641C112CF7D11124285D0121FF22C0
:10325000FFF734FF641C172CF7D1142000F00AFB91
:103260001124285D0021FF22FFF728FF641C172C82
:10327000F7D170BDB0B505210C0701222046FFF73C
:1032800029FE20212046FFF723FE174D284600BFC8
:10329000401EFCD1052103222046FFF71BFE00BF84
:1032A0006D1EFCD111480178102908D3BFF34F8F50
:1032B000104811490160BFF34F8F00BFFDE7491C63
:1032C000017064480178002908D009490978052966
:1032D00006D30024047000F091F802E0002400E01E
:1032E0004C1C03480470B0BD30E602009200002080
:1032F0009B0000200CED00E00400FA05B0B5234867
:1033000001781E2904D30178232901D2082104E081
:1033100002780021282A00D3027805781C4A5543F8
:103320000123DD411B4CA54208D905786D1E55438C
:10333000DD41A54204D8022211431CE019431AE0E2
:103340000578AD1E5543DD41A54202D80322114345
:1033500011E00578ED1E5543DD41A54202D8042257
:10336000114308E00478241F6243DA410A4B9A4271
:1033700001D205221143754A137800241470047099
:10338000064818180C380170B0BDC04695000020E2
:10339000CDCCCCCC999999199A999919C70000204C
:1033A0001148016810220A430260E8488021016048
:1033B000FF20000602490A6882430A607047C0463F
:1033C00004E400E00748416E416607490A6810239B
:1033D0001A430A600168194301604168194341605A
:1033E0007047C04600180240801802405148002132
:1033F0000170514A1170012101707047B0B5154834
:103400000078002813D0144C2178481E81411D4DAE
:103410002A781220FFF752FE6178481E81412A78EF
:103420001120FFF74BFEA478601E84410BE0154D80
:103430002A78122000242146FFF740FE2A78112026
:103440002146FFF73BFE0F48027810202146FFF788
:1034500035FEB0BD9A0000209C000020F0B581B080
:1034600004460025064E074F615D481E8141705D90
:103470003A78FFF723FE6D1C122DF5D101B0F0BD97
:10348000D43F00081200002080B5FFF7B1FD994835
:10349000007801280DD125480178491C0170017878
:1034A000202906D300210170214801210170FFF776
:1034B000E1FE2048017801290CD11F490A78521CED
:1034C0000A700A78102A05D300220A7002701B487D
:1034D000012101708C480078012825D11848017815
:1034E000491C017017480178002908D0017801298A
:1034F0000AD11548012181710178C9430AE01248B7
:103500008179C94381710CE00078022809D10E4805
:103510000121817101700D490A78825CD2430978DA
:1035200042540948FFF79AFF80BDC0461A010020A7
:103530001C0100201501002019010020CD000020F1
:103540009900002098000020D00000209600002064
:10355000B0B5224D2C1F20688006400F411E032964
:1035600022D81F487944097949008F442801171A45
:10357000296803220A40032A00D01A48296849060C
:10358000490F491C00F00AFC29684904490E4843C8
:103590002968490F491C00F001FC10E07D20000261
:1035A0000DE00120C0030AE00120C0020C3D2968A3
:1035B0000143296028688004410F0A48C8400A492D
:1035C0000860226892093C231340084AD258D04030
:1035D0000860074807490160B0BDC0460C100240B2
:1035E00000127A000024F40014000020943F000828
:1035F00008ED00E00025000810B52E4C2069C0073A
:1036000005D02069012188432061002060620520E7
:1036100000071021FFF754FC27490A78A34B985460
:103620000878401C08700878012808D008780C2811
:1036300005D008780D2802D008780F2839D10878ED
:10364000012813D008780C280DD12168012081436E
:1036500021600721A162216804220A43226000211F
:10366000616218490FE008780D2817D12168012000
:10367000814321600721A162216804220A4322605C
:10368000002161620E49E162616901436161E168A3
:103690000143E16021680143216010BD08780F28D3
:1036A00007D100200870206801218843206003486A
:1036B000017010BD002000401B010020C60000204A
:1036C000F20600006B0A000007480168C9070AD02B
:1036D0000121C94302680A40026000224261103899
:1036E00002680A400260704710040040014801214E
:1036F00001707047160100200348012101707047D6
:10370000014800210170704714010020012081034D
:103710000C4A13680B431360FF2109060A4A136819
:103720008B43C10759181160C106234A116008492B
:103730004522CA600A682C2313430B600A680243BF
:103740000A6070474010024018E400E000E100E029
:103750000038014010B50023334A03E05C1C8B4263
:10376000234606D0C45CD46014682406F6D400BF97
:10377000FAE7002010BDC046012041040C4A13683E
:103780000B4313600B490A68802313437F22934342
:103790000B600107084A116008494522CA600A689F
:1037A0002C2313430B600A6802430A607047C0462B
:1037B0003C1002401CE400E000E100E00044004056
:1037C0001948016889062ED5826818480378184977
:1037D000CA5402780B2A1AD302785218921E127811
:1037E0002D2A14D102785218521E12782A2A0ED18C
:1037F00002788A5C232A0AD10278511800224A7082
:103800000178491C0B4A11700B4901220A7001789A
:10381000491C017001781F2903D80749097801293B
:1038200001D10021017070471C3801400D010020BA
:10383000ED00002018010020910000200C480168D4
:10384000890609D58168C9B2C1600168090603D437
:1038500000BF01680906FBD57047C0460449C8602F
:103860000868000603D400BF08680006FBD570474F
:103870001C440040012808DB0021044A134600BF15
:103880005B1EFCD1491C8142F8D170477094000046
:10389000F848017B002907D1417B002904D1807BB6
:1038A000012801D10120704700207047B700002097
:1038B00084B062B6FFF7A8FAFFF72AFBE448E549AF
:1038C0004160FF2101910906E34A13688B430321FC
:1038D0008907591811600027876007210160FFF7E9
:1038E0004BFFFFF713FFFFF72BFB00F03BFA00F055
:1038F00021FAFFF7CBF90120FFF784F9052004072F
:1039000040212046FFF7DCFA002813D1D34D287858
:1039100003280FD8FFF750F92878401C2870FFF7CC
:103920003BFC40212046FFF7CBFA002802D1287843
:103930000428EFD3FFF71CF9C948807D0390C948DC
:103940000078012100281ED17F26039C20463246A4
:10395000FFF7B4FB0F252846FFF78CFF0021204618
:103960000C463246FFF7AAFB2846FFF783FFBE4905
:103970000878401C0870C0B21428E0D1BA4804701E
:10398000FFF7DCF8DBE77F2203980391FFF796FB54
:10399000FFF7ACFEB74CB84DB94E0297B34800786C
:1039A000012804D10020B1490870FFF763FCAD483D
:1039B0000078012801D1FEF75FFFAD4800780128AB
:1039C00033D1AB480770FFF763FF012803D120789C
:1039D0002978814202D1FFF7E3FC26E0A74807706F
:1039E000377020782870394638466218927940003E
:1039F0001018491C0629F8D1A0490870C0B2FFF779
:103A00001BFB307037280DD19E480078012809D162
:103A1000002003999D4A11709B49086048608860A6
:103A2000C860088203989A4908709948007800286D
:103A300004D198480078662800D2D9E094480770ED
:103A400092480078002838D0FFF756FE30783328A7
:103A500003D191490878401C08708F4800780228EB
:103A60008E4A03D88B480078662818D31770874889
:103A70000770FFF745FE8A4D2846FFF7EFFC8248A6
:103A800029466CC96CC07E4E7B4D864A1770824AAF
:103A90001770824A3770098801807E480770107855
:103AA00000283FD01078012846D1307801461E39D1
:103AB0000E296CD87D49087065E0724800780128AD
:103AC00067D1FFF7E1FA002863D06C480078FFF770
:103AD000B3FA6D4C205CC54368480078FFF7ACFA38
:103AE000255403987049087030781128704801D027
:103AF000204611300770204669496CC86CC10088A7
:103B000008806C4908786C4A90714878D071887840
:103B10001072FFF76BFC2046FFF7A0FC564D584E85
:103B2000544C36E0307801460C3904292DD80399DD
:103B300011705C4908702CE01078022829D1307887
:103B4000342820D1177051480770039856490870DF
:103B5000514807704F480770FFF7D2FDFFF746FC4A
:103B60005048007801994E4D29542846FFF776FCBD
:103B7000454829466CC96CC0414E3F4D09880180BB
:103B8000FFF7BCFB05E0022002E0177001E003989C
:103B900010703078382805D148490878C04308703B
:103BA000FFF72CFC3948007801281BD03E480078EC
:103BB000012817D03078362808D0352812D140484F
:103BC00000781930FF2808D3019806E03C480078B7
:103BD0001E2801D81E2000E0193839490870C0B2EB
:103BE000FFF7CEFA02200121FFF70CFAFFF7D8FB0E
:103BF0002D480078012800D0D0E6244800783149CB
:103C00000978012900D0C9E6012800D1C6E62D486F
:103C10000770254807701C4C2046214F39466CC858
:103C20006CC1008808803846FFF718FC2046114C0C
:103C30003946029F6CC96CC0114E0F4D0988018036
:103C4000FEF7C0FD10211C48FFF784FDA6E6C04624
:103C500010E000E07F841E0020ED00E0A1000020C5
:103C6000D43F000891000020940000201C01002097
:103C7000C6000020B7000020A00000209F00002008
:103C80001701002018000020D0000020970000201D
:103C9000B60000209900002093000020980000202A
:103CA000A400002096000020CC00002095000020F9
:103CB0009000002019000020000000209A00002041
:103CC00012000020CD0000200A4907228A620A68FB
:103CD000042313430B6000224A62C8624869012230
:103CE00010434861C8681043C86008681043086002
:103CF0007047C046002000400D4907228A620A68CA
:103D0000042313430B6000224A62C86248690122FF
:103D100010434861C8681043C860086810430860D1
:103D20007047C04602480168012291430160704714
:103D3000000400400120C103094A13690B431361C9
:103D400013680B43136013688B431360FF2109064C
:103D5000104A13688B431360C0040F490860704712
:103D6000301002400A4801690222114301610168D2
:103D70001143016001689143016006480168FF2218
:103D80009143016001200004034908607047C04668
:103D90002C10024010E400E000E100E043088B42F8
:103DA0001AD3002203098B4279D3030A8B425ED3D4
:103DB000030B8B4242D3030C8B4227D30902FF2211
:103DC00012BA030C8B4202D31212090203D0030B66
:103DD0008B4233D31AE0D3E0411A8041401C704734
:103DE00003460B4371D443088B42F5D300220309E9
:103DF0008B4254D3030A8B4239D3030B8B421DD31E
:103E0000030C8B4202D394466EE0090AC30B8B422B
:103E100001D3CB03C01A5241830B8B4201D38B03D6
:103E2000C01A5241430B8B4201D34B03C01A52417B
:103E3000030B8B4201D30B03C01A5241C30A8B42BE
:103E400001D3CB02C01A5241830A8B4201D38B02A9
:103E5000C01A5241430A8B4201D34B02C01A52414D
:103E6000030A8B4201D30B02C01A5241CDD2C309BF
:103E70008B4201D3CB01C01A524183098B4201D33B
:103E80008B01C01A524143098B4201D34B01C01A26
:103E9000524103098B4201D30B01C01A5241C3089E
:103EA0008B4201D3CB00C01A524183088B4201D30D
:103EB0008B00C01A524143088B4201D34B00C01AF9
:103EC0005241411A524110007047CA0F00D0494276
:103ED000031000D34042534000229C4603098B420A
:103EE0002DD3030A8B4212D38901FC2212BA030A92
:103EF0008B420CD3890192118B4208D38901921114
:103F00008B4204D3890137D0921100E08909C3099B
:103F10008B4201D3CB01C01A524183098B4201D39A
:103F20008B01C01A524143098B4201D34B01C01A85
:103F3000524103098B4201D30B01C01A5241C308FD
:103F40008B4201D3CB00C01A524183088B4201D36C
:103F50008B00C01A5241D9D243088B4201D34B0087
:103F6000C01A5241411A00D20146524110466346DE
:103F70005B1000D34042704763465B1000D3404261
:103F800001B50021004201D0C9430846C046C046E1
:103F900002BD000000000000000000000000000062
:103FA0000000000000000000000000000000000011
:103FB00000000000010000000200000003000000FB
:103FC00004000000060000000700000008000000D8
:103FD00009000000070605040302080F0E0D0C0B74
:103FE0001316171A1514191211101863104000082F
:103FF00000000020300000000426000840400008B7
:1040000030000020F006000020260008000000001C
:1040100002010A00002017131900000A0370BA2ACF
:104020002370FF000024F4000117131900000000A2
:10403000000000000000000001010101010100007A
:04000005080025C109
:00000001FF
